:020000040800F2
:1000000000000220658200081D800008258000088D
:100010002D800008358000083D80000800000000A9
:10002000000000000000000000000000410F010877
:1000300045800008000000009111010819DE000849
:10004000B5820008B5820008B5820008B5820008B4
:10005000B5820008B5820008B5820008B5820008A4
:10006000B5820008B5820008B5820008B582000894
:10007000B5820008B5820008B5820008B582000884
:100080005580000869800008B5820008B582000824
:10009000B5820008B5820008B5820008B582000864
:1000A000B5820008B5820008B5820008B582000854
:1000B000B5820008B5820008B5820008B582000844
:1000C000B5820008B5820008B5820008B582000834
:1000D000B5820008B58200087D800008B58200085E
:1000E000B5820008B5820008B5820008B582000814
:1000F000B5820008B5820008B5820008B582000804
:10010000B5820008B5820008B5820008B5820008F3
:10011000B5820008B582000891800008B582000809
:10012000B5820008B5820008B5820008B5820008D3
:10013000B58200080000000000000000B582000841
:10014000B5820008B5820008B5820008B5820008B3
:10015000B5820008B5820008B5820008B5820008A3
:10016000B5820008B5820008B5820008B582000893
:10017000B5820008B5820008000000000000000001
:08018000B5820008A58000080B
:1001900010B5054C237833B9044B13B10448AFF3C1
:1001A00000800123237010BD140400200000000013
:1001B0001053010808B5034B1BB103490348AFF3C3
:1001C000008008BD00000000180400201053010842
:1001D00001F0FF01102A2BDB10F0070F08D010F8F8
:1001E000013B013A8B422DD010F0070F42B3F6D1FC
:1001F000F0B441EA012141EA014122F007047FF015
:1002000000070023F0E80256083C85EA010586EA6B
:10021000010685FA47F5A3FA87F586FA47F6A5FAA7
:1002200087F68EB9EED1F0BC01F0FF0102F00702B3
:1002300032B110F8013B013A83EA010313B1F8D15E
:100240000020704701387047002D06BF354603383F
:10025000073815F0010F07D1013015F4807F02BF78
:10026000013015F4C03F0130F0BC0138704700BFC9
:10027000034613F8012B002AFBD1181A01387047E6
:1002800081F0004102E000BF83F0004330B54FEA47
:1002900041044FEA430594EA050F08BF90EA020FB4
:1002A0001FBF54EA000C55EA020C7FEA645C7FEA47
:1002B000655C00F0E2804FEA5454D4EB5555B8BF6A
:1002C0006D420CDD2C4480EA020281EA030382EADB
:1002D000000083EA010180EA020281EA0303362D6D
:1002E00088BF30BD11F0004F4FEA01314FF4801C40
:1002F0004CEA113102D0404261EB410113F0004F52
:100300004FEA03334CEA133302D0524263EB430308
:1003100094EA050F00F0A780A4F10104D5F1200EA6
:100320000DDB02FA0EFC22FA05F2801841F1000101
:1003300003FA0EF2801843FA05F359410EE0A5F1D5
:1003400020050EF1200E012A03FA0EFC28BF4CF006
:10035000020C43FA05F3C01851EBE37101F00045BC
:1003600007D54FF0000EDCF1000C7EEB00006EEBC9
:100370000101B1F5801F1BD3B1F5001F0CD3490853
:100380005FEA30004FEA3C0C04F101044FEA4452AA
:1003900012F5800F80F09A80BCF1004F08BF5FEA31
:1003A000500C50F1000041EB045141EA050130BD11
:1003B0005FEA4C0C404141EB0101013C28BFB1F523
:1003C000801FE9D291F0000F04BF01460020B1FA6E
:1003D00081F308BF2033A3F10B03B3F120020CDA41
:1003E0000C3208DD02F1140CC2F10C0201FA0CF01F
:1003F00021FA02F10CE002F11402D8BFC2F1200C84
:1004000001FA02F120FA0CFCDCBF41EA0C01904039
:10041000E41AA2BF01EB0451294330BD6FEA040482
:100420001F3C1CDA0C340EDC04F11404C4F120026D
:1004300020FA04F001FA02F340EA030021FA04F37F
:1004400045EA030130BDC4F10C04C4F1200220FAD6
:1004500002F001FA04F340EA0300294630BD21FA14
:1004600004F0294630BD94F0000F83F4801306BFDA
:1004700081F480110134013D4EE77FEA645C18BFCE
:100480007FEA655C29D094EA050F08BF90EA020F65
:1004900005D054EA000C04BF1946104630BD91EA5D
:1004A000030F1EBF0021002030BD5FEA545C05D160
:1004B0004000494128BF41F0004130BD14F580049F
:1004C0003CBF01F5801130BD01F0004545F0FE4113
:1004D00041F470014FF0000030BD7FEA645C1ABF48
:1004E000194610467FEA655C1CBF0B46024650EA7F
:1004F000013406BF52EA033591EA030F41F40021AB
:1005000030BD00BF90F0000F04BF0021704730B530
:100510004FF4806404F132044FF000054FF0000105
:1005200050E700BF90F0000F04BF0021704730B5C6
:100530004FF4806404F1320410F0004548BF40429B
:100540004FF000013EE700BF42004FEAE2014FEAF0
:1005500031014FEA02701FBF12F07F4393F07F4FCB
:1005600081F06051704732F07F4208BF704793F0CE
:100570007F4F04BF41F40021704730B54FF46074E1
:1005800001F0004521F000411CE700BF50EA0102E4
:1005900008BF704730B54FF000050AE050EA01028D
:1005A00008BF704730B511F0004502D5404261EBFD
:1005B00041014FF4806404F132045FEA915C3FF43E
:1005C000D8AE4FF003025FEADC0C18BF03325FEADB
:1005D000DC0C18BF033202EBDC02C2F1200300FA8C
:1005E00003FC20FA02F001FA03FE40EA0E0021FAB1
:1005F00002F11444BDE600BF70B54FF0FF0C4CF49F
:10060000E06C1CEA11541DBF1CEA135594EA0C0F50
:1006100095EA0C0F00F0DEF82C4481EA030621EA8B
:100620004C5123EA4C5350EA013518BF52EA0335C6
:1006300041F4801143F4801338D0A0FB02CE4FF078
:100640000005E1FB02E506F00042E0FB03E54FF0A8
:100650000006E1FB03569CF0000F18BF4EF0010EA0
:10066000A4F1FF04B6F5007F64F5407404D25FEA9C
:100670004E0E6D4146EB060642EAC62141EA55514F
:100680004FEAC52040EA5E504FEACE2EB4F1FD0C91
:1006900088BFBCF5E06F1ED8BEF1004F08BF5FEA0F
:1006A000500E50F1000041EB045170BD06F00046C1
:1006B00046EA010140EA020081EA0301B4EB5C046E
:1006C000C2BFD4EB0C0541EA045170BD41F4801166
:1006D0004FF0000E013C00F3AB8014F1360FDEBF8B
:1006E000002001F0004170BDC4F10004203C35DA67
:1006F0000C341BDC04F11404C4F1200500FA05F3EA
:1007000020FA04F001FA05F240EA020001F000428A
:1007100021F0004110EBD37021FA04F642EB060100
:100720005EEA430E08BF20EAD37070BDC4F10C042A
:10073000C4F1200500FA04F320FA05F001FA04F2EE
:1007400040EA020001F0004110EBD37041F10001DA
:100750005EEA430E08BF20EAD37070BDC4F12005E5
:1007600000FA05F24EEA020E20FA04F301FA05F24D
:1007700043EA020321FA04F001F0004121FA04F2F5
:1007800020EA020000EBD3705EEA430E08BF20EAC5
:10079000D37070BD94F0000F0FD101F000464000FF
:1007A00041EB010111F4801F08BF013CF7D041EA81
:1007B000060195F0000F18BF704703F00046520085
:1007C00043EB030313F4801F08BF013DF7D043EA56
:1007D0000603704794EA0C0F0CEA135518BF95EA0C
:1007E0000C0F0CD050EA410618BF52EA4306D1D193
:1007F00081EA030101F000414FF0000070BD50EAB2
:10080000410606BF1046194652EA430619D094EA3B
:100810000C0F02D150EA013613D195EA0C0F05D125
:1008200052EA03361CBF104619460AD181EA030179
:1008300001F0004141F0FE4141F470014FF0000031
:1008400070BD41F0FE4141F4780170BD70B54FF0CC
:10085000FF0C4CF4E06C1CEA11541DBF1CEA13554C
:1008600094EA0C0F95EA0C0F00F0A7F8A4EB05042E
:1008700081EA030E52EA03354FEA013100F0888025
:100880004FEA03334FF0805545EA131343EA1263EE
:100890004FEA022245EA111545EA10654FEA0026A3
:1008A0000EF000419D4208BF964244F1FD0404F55C
:1008B000407402D25B084FEA3202B61A65EB0305B8
:1008C0005B084FEA32024FF480104FF4002CB6EB75
:1008D000020E75EB030E22BFB61A754640EA0C00F5
:1008E0005B084FEA3202B6EB020E75EB030E22BF35
:1008F000B61A754640EA5C005B084FEA3202B6EB76
:10090000020E75EB030E22BFB61A754640EA9C0034
:100910005B084FEA3202B6EB020E75EB030E22BF04
:10092000B61A754640EADC0055EA060E18D04FEAC2
:10093000051545EA16754FEA06164FEAC30343EA62
:1009400052734FEAC2025FEA1C1CC0D111F4801F2F
:100950000BD141EA00014FF000004FF0004CB6E728
:1009600011F4801F04BF01430020B4F1FD0C88BFC7
:10097000BCF5E06F3FF6AFAEB5EB030C04BFB6EBD2
:10098000020C5FEA500C50F1000041EB045170BDC5
:100990000EF0004E4EEA113114EB5C04C2BFD4EBF2
:1009A0000C0541EA045170BD41F480114FF0000E76
:1009B000013C90E645EA060E8DE60CEA135594EAF2
:1009C0000C0F08BF95EA0C0F3FF43BAF94EA0C0FF5
:1009D0000AD150EA01347FF434AF95EA0C0F7FF46A
:1009E00025AF104619462CE795EA0C0F06D152EABE
:1009F00003353FF4FDAE1046194622E750EA4106A2
:100A000018BF52EA43067FF4C5AE50EA41047FF4B2
:100A10000DAF52EA43057FF4EBAE12E74FF0FF3C17
:100A200006E000BF4FF0010C02E000BF4FF0010CE8
:100A30004DF804CD4FEA410C7FEA6C5C4FEA430C61
:100A400018BF7FEA6C5C1BD001B050EA410C0CBFB0
:100A500052EA430C91EA030F02BF90EA020F002012
:100A6000704710F1000F91EA030F58BF994208BF79
:100A700090422CBFD8176FEAE37040F00100704736
:100A80004FEA410C7FEA6C5C02D150EA013C07D18D
:100A90004FEA430C7FEA6C5CD6D152EA033CD3D0D8
:100AA0005DF8040B704700BF8446104662468C46D2
:100AB0001946634600E000BF01B5FFF7B7FF002805
:100AC00048BF10F1000F01BD4DF808EDFFF7F4FF2E
:100AD0000CBF012000205DF808FB00BF4DF808EDB9
:100AE000FFF7EAFF34BF012000205DF808FB00BFDC
:100AF0004DF808EDFFF7E0FF94BF012000205DF8FE
:100B000008FB00BF4DF808EDFFF7CEFF94BF0120B2
:100B100000205DF808FB00BF4DF808EDFFF7C4FFAB
:100B200034BF012000205DF808FB00BF4FEA410CF4
:100B30007FEA6C5C02D150EA013C0AD14FEA430CD7
:100B40007FEA6C5C02D152EA033C02D14FF0000014
:100B500070474FF0010070474FEA410212F5001252
:100B600015D211D56FF47873B3EB625212D94FEAF4
:100B7000C12343F0004343EA505311F0004F23FADE
:100B800002F018BF404270474FF00000704750EA33
:100B9000013005D111F0004008BF6FF000407047F0
:100BA0004FF00000704700BF53B94AB9002908BF91
:100BB00000281CBF4FF0FF314FF0FF3000F06AB942
:100BC000ADF1080C6DE904CE00F006F8DDF804E0A4
:100BD000DDE9022304B070472DE9F047089D0C467B
:100BE000002B4ED194468C458646B2FA82F262D9E9
:100BF0004AB1C2F12003914020FA03F30CFA02FC3F
:100C0000194300FA02FE4FEA1C471FFA8CF6B1FBAB
:100C1000F7F44FEA1E4307FB141143EA014304FBB8
:100C200006F199420AD91CEB030304F1FF3080F06E
:100C30001281994240F20F81023C6344591A1FFA13
:100C40008EF3B1FBF7F007FB101143EA014300FB01
:100C500006F69E420AD91CEB030300F1FF3180F037
:100C6000FC809E4240F2F980634402389B1B40EABC
:100C7000044000211DB1D3400022C5E90032BDE887
:100C8000F0878B4205D90DB1C5E900010021084666
:100C9000F5E7B3FA83F1002946D1A34202D390428B
:100CA000C0F0F080861A64EB03030120002DE6D02B
:100CB000C5E90063E3E7002A40F09080A1EB0C0453
:100CC0004FEA1C481FFA8CF70121B4FBF8F64FEAF3
:100CD0001E4308FB164443EA044307FB06F0984210
:100CE00008D91CEB030306F1FF3402D2984200F24C
:100CF000CD8026461C1A1FFA8EF3B4FBF8F008FBD1
:100D0000104443EA044300FB07F79F4208D91CEB59
:100D1000030300F1FF3402D29F4200F2B08020466C
:100D2000DB1B40EA0640A5E7C1F120068B4022FA12
:100D300006F71F4320FA06FC04FA01F343EA0C030A
:100D4000F44000FA01F8380C4FEA1349B4FBF0FE06
:100D50001FFA87FC00FB1E4449EA04440EFB0CF911
:100D6000A14502FA01F20AD93C190EF1FF3A80F0CE
:100D70008480A14540F28180AEF1020E3C44A4EB98
:100D800009041FFA83F9B4FBF0F300FB134449EAAA
:100D9000044403FB0CFCA44507D93C1903F1FF30C4
:100DA00067D2A44565D9023B3C4443EA0E40A0FB10
:100DB0000293A4EB0C049C42CE469C4651D34ED0E9
:100DC00055B1B8EB0E0364EB0C0404FA06F6CB4005
:100DD0001E43CC40C5E90064002150E7C2F1200366
:100DE00020FA03F10CFA02FC24FA03F394400C43BA
:100DF0004FEA1C4800FA02FE1FFA8CF7B3FBF8F02A
:100E000008FB1031230C43EA014300FB07F1994230
:100E100008D91CEB030300F1FF362CD299422AD9E2
:100E2000023863445B1AA4B2B3FBF8F108FB113338
:100E300044EA034401FB07F3A34208D91CEB040472
:100E400001F1FF3613D2A34211D902396444E41AE6
:100E500041EA004139E70446F0E6084606E7C8459E
:100E6000AED2B9EB020E63EB070C0138A8E73146AE
:100E7000EDE7034699E73046D4E7D6467FE763447B
:100E800002384DE70646234608460FE7023E634414
:100E900030E700BF704700BF80B58CB000AF78600E
:100EA0004B4B1B683B624B4B1B68FB614A4B1B68FF
:100EB000BB614A4B1B687B61494B9B683B61494B5B
:100EC0001B68FB60474B5B68BB604FF00003FB6235
:100ED0004FF00003BB624FF000037B62D7ED067A50
:100EE000F0EEE77A9FED407AF4EEC77AF1EE10FA71
:100EF0001BDD3E4B00221A70D7ED067A9FED3C7A3F
:100F000067EE877AC7ED0B7A3A4B4FF00002DA6052
:100F1000384B4FF000029A61364B4FF00002DA6115
:100F2000344B4FF000021A621BE0334B1B78DBB2EC
:100F3000002B13D02D4B1B78002B05D12D4A3B697C
:100F4000D3602A4B01221A70DFED2C0A97ED040AB8
:100F5000284806F040F987ED0B0A02E04FF0000345
:100F6000FB62274B1B78DBB2002B09D0DFED230A95
:100F700097ED030A234806F02EF987ED0A0A02E0EE
:100F80004FF00003BB62204B1B78DBB2002B09D073
:100F9000DFED1A0A97ED020A1C4806F01CF987EDEE
:100FA000090A02E04FF000037B62D7ED052A97EDB6
:100FB000092AD7ED0A1A97ED0B1AD7ED070A97ED14
:100FC000080A05F05BFB14200DF031F868E700BF5C
:100FD000E00A0020E40A0020E80A0020EC0A0020D1
:100FE000D40A0020B80A0020CDCC4C3D30040020AB
:100FF0000000C84204020020F20A00200AD7A33CE5
:10100000F00A00209C010020F10A0020D0010020FD
:1010100080B58EB000AFF860B9607A603B60B968A7
:10102000214805F0ADFB03461A46204B9A717968BA
:101030001F4806F00FFA03461A461C4B1A7241F27B
:1010400088311B4806F078FA3A6C3968194805F07F
:1010500005FE03461A46154BDA71174A7B6C13607E
:1010600005F09AF901220121F86804F097FC07F1D4
:10107000140324220021184611F0DFF80F4B7B6186
:101080004FF40063BB621823FB6207F114031A4696
:1010900000210B480CF039FF03460A4A136000BFD9
:1010A0003837BD4680BD00BFF40A00202408002068
:1010B000100B0020200B00203808002028530108C6
:1010C000990E00083404002080B582B002AF07F00A
:1010D000F3F800F05BF800F0E7FB00F0BDFB00F078
:1010E00051F900F089FA00F08DFB00F015F900F0DD
:1010F0000DFA00F0B5F800F0E1F800F035FB6420DF
:1011000007F01CF90CF0A2FE184B0193184B00934A
:10111000184B194A19491A48FFF77AFF0022194952
:10112000002005F0F5F904221649012005F0F0F938
:1011300008221449022005F0EBF908221249032085
:1011400005F0E6F900221049042005F0E1F9042237
:101150000D49052005F0DCF90C220A49062005F0AE
:10116000D7F90CF097FE00BFFDE700BF1006002086
:1011700080050020E00400208C04002038040020BA
:101180005806002038050020C805002080B594B01E
:1011900000AF07F1200330220021184611F04DF86E
:1011A00007F10C0300221A605A609A60DA601A6133
:1011B0000023BB60284B1B6C274A43F08053136409
:1011C000254B1B6C03F08053BB60BB6800237B6026
:1011D000224B1B68214A43F4804313601F4B1B685A
:1011E00003F480437B607B6802233B620123FB6244
:1011F00010233B630223BB630023FB6308233B6490
:1012000054237B640223BB640423FB6407F12003A3
:10121000184609F0B9F80346002B01D000F0C8FBCE
:101220000F23FB6002233B6100237B614FF480535B
:10123000BB614FF48053FB6107F10C030221184698
:1012400009F01AFB0346002B01D000F0B1FB00BFF0
:101250005037BD4680BD00BF0038024000700040DE
:1012600080B500AF124B134A1A60114B124A5A60F4
:101270000F4B00229A600E4B0022DA600C4B4FF4A9
:1012800080421A610A4B00225A61094B00229A617E
:10129000074B0022DA61064B80221A62044808F0EC
:1012A0001FF80346002B01D000F082FB00BF80BD79
:1012B0003804002000540040A086010080B500AF33
:1012C000124B134A1A60114B124A5A600F4B0022FC
:1012D0009A600E4B0022DA600C4B4FF480421A6188
:1012E0000A4B00225A61094B00229A61074B0022E7
:1012F000DA61064B00221A62044807F0F1FF034648
:10130000002B01D000F054FB00BF80BD8C040020F6
:1013100000580040A086010080B500AF174B184A66
:101320001A60164B4FF482725A60144B00229A6076
:10133000124B0022DA60114B00221A610F4B00227F
:101340005A610E4B4FF400729A610C4B3822DA61ED
:101350000A4B00221A62094B00225A62074B0022F4
:101360009A62064B0A22DA62044809F097FC0346A7
:10137000002B01D000F01CFB00BF80BDE00400206A
:101380000030014080B596B000AF07F1480300225D
:101390001A605A609A60DA6007F1400300221A600E
:1013A0005A6007F1240300221A605A609A60DA60DA
:1013B0001A615A619A613B1D20220021184610F0E3
:1013C0003CFF504B504A1A604E4B53225A604D4BD3
:1013D00000229A604B4B44F61F62DA60494B0022B0
:1013E0001A61484B00225A61464B00229A614548D7
:1013F0000AF026FA0346002B01D000F0D9FA4FF488
:101400008053BB6407F1480319463E480AF01CFEAE
:101410000346002B01D000F0CBFA3A480AF0D0FA8C
:101420000346002B01D000F0C3FA00233B640023E5
:101430007B6407F14003194632480BF011FA03466A
:10144000002B01D000F0B4FA60237B620023BB6262
:101450000023FB6200233B6300237B630023BB6309
:101460000023FB6307F124030022194625480AF0F4
:1014700029FD0346002B01D000F09AFA07F124035E
:10148000042219461F480AF01DFD0346002B01D017
:1014900000F08EFA07F124030822194619480AF0D1
:1014A00011FD0346002B01D000F082FA07F124035E
:1014B0000C22194613480AF005FD0346002B01D003
:1014C00000F076FA00237B600023BB600023FB6002
:1014D00000233B6100237B614FF40053BB61002379
:1014E0003B623B1D194607480BF036FA0346002BBA
:1014F00001D000F05DFA034806F0ACFB00BF58379E
:10150000BD4680BD380500200000014080B58EB08A
:1015100000AF07F1280300221A605A609A60DA606F
:1015200007F1200300221A605A603B1D00221A6056
:101530005A609A60DA601A615A619A612D4B4FF0D5
:1015400080421A602B4B00225A602A4B00229A607C
:10155000284B40F60222DA60264B00221A61254B06
:1015600000229A6123480AF06BF90346002B01D050
:1015700000F01EFA4FF48053BB6207F128031946AE
:101580001C480AF061FD0346002B01D000F010FA60
:1015900018480AF015FA0346002B01D000F008FAAB
:1015A00000233B6200237B6207F1200319461148A8
:1015B0000BF056F90346002B01D000F0F9F9602337
:1015C0007B6040F20153BB600023FB6000237B6122
:1015D0003B1D0022194607480AF074FC0346002B05
:1015E00001D000F0E5F9034806F034FB00BF3837BE
:1015F000BD4680BD8005002080B596B000AF07F1E4
:10160000480300221A605A609A60DA6007F14003CA
:1016100000221A605A6007F1240300221A605A60FF
:101620009A60DA601A615A619A613B1D202200219A
:10163000184610F002FE4A4B4A4A1A60484B5322A1
:101640005A60474B00229A60454B44F61F62DA60AD
:10165000434B00221A61424B00225A61404B002248
:101660009A613F480AF0ECF80346002B01D000F0E5
:101670009FF94FF48053BB6407F14803194638487B
:101680000AF0E2FC0346002B01D000F091F9344847
:101690000AF096F90346002B01D000F089F90023E7
:1016A0003B6400237B6407F1400319462C480BF090
:1016B000D7F80346002B01D000F07AF960237B6253
:1016C0000023BB620023FB6200233B6300237B6398
:1016D0000023BB630023FB6307F1240300221946A8
:1016E0001F480AF0EFFB0346002B01D000F060F921
:1016F00007F124030422194619480AF0E3FB0346C4
:10170000002B01D000F054F907F1240308221946F8
:1017100013480AF0D7FB0346002B01D000F048F92C
:1017200000237B600023BB600023FB6000233B6140
:1017300000237B614FF40053BB6100233B623B1DE0
:10174000194607480BF008F90346002B01D000F0BA
:101750002FF9034806F07EFA00BF5837BD4680BD1A
:10176000C80500200004014080B588B000AF3B1DD3
:1017700000221A605A609A60DA601A615A619A61AE
:101780001E4B1F4A1A601D4B53225A601B4B0022EE
:101790009A601A4B40F2E732DA60184B00221A6165
:1017A000164B00229A6115480AF04AF80346002BAE
:1017B00001D000F0FDF811480AF002F90346002BB1
:1017C00001D000F0F5F860237B600023BB600023AC
:1017D000FB6000237B613B1D0022194607480AF08D
:1017E00071FB0346002B01D000F0E2F8034806F03D
:1017F00031FA00BF2037BD4680BD00BF1006002073
:101800000044014080B500AF114B124A1A60104BE2
:101810004FF4E1325A600E4B00229A600C4B0022CA
:10182000DA600B4B00221A61094B0C225A61084BFB
:1018300000229A61064B0022DA6105480BF0F2F8AB
:101840000346002B01D000F0B3F800BF80BD00BFFD
:10185000580600200044004080B582B000AF00234D
:101860007B60104B1B6B0F4A43F4001313630D4B4B
:101870001B6B03F400137B607B68002205211020A2
:1018800006F038FE102006F051FE0022052111203E
:1018900006F030FE112006F049FE00BF0837BD46B5
:1018A00080BD00BF0038024080B588B000AF07F1AE
:1018B0000C0300221A605A609A60DA601A610023F1
:1018C000BB60294B1B6B284A43F004031363264B70
:1018D0001B6B03F00403BB60BB6800237B60224BDF
:1018E0001B6B214A43F0010313631F4B1B6B03F077
:1018F00001037B607B6800233B601B4B1B6B1A4A18
:1019000043F002031363184B1B6B03F002033B60AD
:101910003B6800220421154807F0C8FC002204217E
:10192000134807F0C3FC0423FB6001233B61002341
:101930007B610023BB6107F10C0319460B4807F0DC
:1019400005FA0423FB6001233B6100237B61002334
:10195000BB6107F10C031946054807F0F7F900BF12
:101960002037BD4680BD00BF00380240000802405D
:101970000004024080B582B000AF7860786803F060
:10198000CDFF00BF0837BD4680BD000080B582B0E6
:1019900000AF78607B681B68044A934201D106F06F
:1019A000ADFC00BF0837BD4680BD00BF0010004041
:1019B00080B400AF72B600BF00BFFDE780B48DB049
:1019C00000AFF860B9607A600023FB62AEE0FA6AAB
:1019D00013465B0013449B001A467B6813441A6845
:1019E000F968FB6A9B000B441A60FA6A13465B00B5
:1019F00013449B001A467B681344FA6802F11C01E9
:101A00005A68FB6A9B000B441A60FA6A13465B0033
:101A100013449B001A467B681344FA6802F13801AC
:101A20009A68FB6A9B000B441A60FA6A13465B00D3
:101A300013449B001A46BB6813441B68BB62FA6AD6
:101A400013465B0013449B001A46BB6813445B6853
:101A50007B62FA6A13465B0013449B001A46BB681C
:101A600013449B683B62FA6A13465B0013449B0075
:101A70001A467B6813441B68FB61FA6A13465B00D5
:101A800013449B001A467B6813445B68BB61FA6A87
:101A900013465B0013449B001A467B6813449B6803
:101AA0007B6197ED097AD7ED057A27EE277AD7ED96
:101AB000086AD7ED067A66EEA77AFB6803F154024E
:101AC00077EE677AFB6A9B001344C3ED007A97EDCB
:101AD000087AD7ED077A27EE277AD7ED0A6AD7ED8D
:101AE000057A66EEA77AFB6803F1700277EE677AF3
:101AF000FB6A9B001344C3ED007A97ED0A7AD7ED99
:101B0000067A27EE277AD7ED096AD7ED077A66EECF
:101B1000A77AFB6803F18C0277EE677AFB6A9B0079
:101B20001344C3ED007AFB6A0133FB62FB6A062BA8
:101B30007FF74DAF00BF00BF3437BD465DF8047B73
:101B4000704790B5D1B000AF07F5A074A4F59A74B2
:101B5000206007F5A070A0F59C70016007F5A071EA
:101B6000A1F59E710A6007F5A072A2F5A07213603C
:101B70000023C7F83C3116E0D7F83C319B0007F54D
:101B8000A072A2F59C72126813441A68D7F83C310F
:101B90009B0003F5A0733B44F43B1A60D7F83C313B
:101BA0000133C7F83C3107F5A073A3F59A731B689E
:101BB00003FB03F3D7F83C219A42DDDB0023C7F88F
:101BC000383117E0D7F838319B0007F5A072A2F53D
:101BD0009E72126813441A6807F5A073A3F5887102
:101BE000D7F838319B000B441A60D7F838310133ED
:101BF000C7F8383107F5A073A3F59A73D7F83821E1
:101C00001B689A42DEDB0023C7F83431B9E00023B9
:101C1000C7F83031A9E007F5A073A3F59A72D7F899
:101C20003431126803FB02F2D7F8303113449B00C1
:101C300003F5A0733B44F43B1B68C7F82C31002329
:101C4000C7F8283132E007F5A073A3F59A72D7F8E8
:101C50003431126803FB02F2D7F8283113449B0099
:101C600003F5A0733B44F43B93ED007A07F5A073B2
:101C7000A3F59A72D7F83031126803FB02F2D7F855
:101C8000283113449B0003F5A0733B44F43BD3ED90
:101C9000007A67EE277A97ED4B7A77EE677AC7ED91
:101CA0004B7AD7F828310133C7F82831D7F82821E3
:101CB000D7F830319A42C6DBD7F83421D7F8303123
:101CC0009A4223D1D7ED4B7AF5EEC07AF1EE10FAB5
:101CD00002D84FF0FF334AE107F5A073A3F59A72DB
:101CE000D7F83431126803FB02F2D7F83431D41834
:101CF00097ED4B0A12F0D4FBF0EE407AA30003F507
:101D0000A0733B44F43BC3ED007A29E007F5A073D0
:101D1000A3F59A72D7F83031126803FB02F2D7F8B4
:101D2000303113449B0003F5A0733B44F43B93ED27
:101D3000007A07F5A073A3F59A72D7F834311268C8
:101D400003FB02F2D7F830311344D7ED4B6AC6EEED
:101D5000877A9B0003F5A0733B44F43BC3ED007A04
:101D6000D7F830310133C7F83031D7F83021D7F800
:101D700034319A427FF74FAFD7F834310133C7F887
:101D8000343107F5A073A3F59A73D7F834211B6893
:101D90009A42FFF63CAF0023C7F8243164E007F510
:101DA000A073A3F58872D7F824319B0013441B68F5
:101DB000C7F820310023C7F81C3129E007F5A073CC
:101DC000A3F59A72D7F82431126803FB02F2D7F810
:101DD0001C3113449B0003F5A0733B44F43B93ED8B
:101DE000007A07F5A073A3F59672D7F81C319B0013
:101DF0001344D3ED007A67EE277A97ED487A77EEB1
:101E0000677AC7ED487AD7F81C310133C7F81C311F
:101E1000D7F81C21D7F824319A42CFDB07F5A073FD
:101E2000A3F59A72D7F82431126803FB02F2D7F8AF
:101E3000243113449B0003F5A0733B44F43B93ED22
:101E4000007AD7ED486AC6EE877A07F5A073A3F546
:101E50009672D7F824319B001344C3ED007AD7F86B
:101E600024310133C7F8243107F5A073A3F59A7321
:101E7000D7F824211B689A4291DB07F5A073A3F5DC
:101E80009A731B68013BC7F818316BE007F5A07324
:101E9000A3F59672D7F818319B0013441B68C7F856
:101EA0001431D7F818310133C7F810312AE007F59B
:101EB000A073A3F59A72D7F81031126803FB02F2EF
:101EC000D7F8183113449B0003F5A0733B44F43B4F
:101ED00093ED007AD7F810319B0007F5A072A2F5B8
:101EE000A07212681344D3ED007A67EE277A97ED5B
:101EF000457A77EE677AC7ED457AD7F81031013326
:101F0000C7F8103107F5A073A3F59A73D7F810211D
:101F10001B689A42CBDB07F5A073A3F59A72D7F83A
:101F20001831126803FB02F2D7F8183113449B00F2
:101F300003F5A0733B44F43B93ED007AD7F81831D6
:101F40009B0007F5A072A2F5A07212681344D7EDAA
:101F5000456AC6EE877AC3ED007AD7F81831013B9F
:101F6000C7F81831D7F81831002B8FDA002318463C
:101F700007F5A277BD4690BD80B48DB000AFF86084
:101F8000B9607A603B600023FB6209E0FB6A9B005A
:101F90007A6813444FF000021A60FB6A0133FB6257
:101FA000FB6A302BF2DD0023BB6209E0BB6A9B00B9
:101FB0003A6813444FF000021A60BB6A0133BB62F7
:101FC000BB6A062BF2DD00237B6271E000233B62DB
:101FD0003BE04FF00003FB610023BB6124E0BA69E2
:101FE0001346DB009B1A9B001A46FB681A447B6A67
:101FF0009B00134493ED007ABA691346DB009B1AE9
:102000009B001A46FB681A443B6A9B001344D3EDBD
:10201000007A67EE277A97ED077A77EE277AC7ED91
:10202000077ABB690133BB61BB69052BD7DD7A6ACF
:102030001346DB009A1A3B6A13449B007A681344E8
:10204000FA691A603B6A01333B623B6A062BC0DDCA
:102050004FF000037B6100233B611DE03A691346AA
:10206000DB009B1A9B001A46FB681A447B6A9B00A4
:10207000134493ED007A3B699B00BA681344D3ED97
:10208000007A67EE277A97ED057A77EE277AC7ED23
:10209000057A3B6901333B613B69052BDEDD7B6AD9
:1020A0009B003A6813447A691A607B6A01337B6249
:1020B0007B6A062B8ADD00BF00BF3437BD465DF862
:1020C000047B704780B5BEB000AFF860B96087EDA3
:1020D000010A3A6007F1100307F12C02B968F868A9
:1020E000FFF74AFFD7ED017A67EEA77AC7ED3C7A92
:1020F0000023C7F8F4301AE0D7F8F430DB009B0077
:10210000F8333B44CC3B93ED007AD7F8F430DB0056
:10211000D7ED3C7A77EE277A9B00F8333B44CC3BF3
:10212000C3ED007AD7F8F4300133C7F8F430D7F8AC
:10213000F430062BE0DD07F1100207F12C013B68BB
:102140000720FFF7FEFC03461846F837BD4680BD62
:1021500090B5EFB000AF07F5DC74A4F5D274206041
:1021600007F5DC70A0F5D470016007F5DC71A1F50E
:10217000D67181ED000A07F5DC71A1F5D8710A600E
:1021800007F5DC72A2F5DA72136007F5DC73A3F5CC
:10219000D67007F5DC73A3F5D47107F5DC73A3F5EE
:1021A000D273D7F8CC2190ED000A09681868FFF7C0
:1021B00089FF0346002B02D04FF0FF33B7E2002324
:1021C000C7F84C3107F5A87300210A461A800A4661
:1021D0009A700023C7F8B4319DE20023C7F8B031EC
:1021E0000023C7F8AC310023C7F8A8318EE0D7F838
:1021F000A8319B00D7F8CC2113441B68C7F85C3189
:1022000007F5DC73A3F5D8731B68002B0AD0D7F849
:10221000A8319B0007F5DC72A2F5D872126813444E
:102220001B6800E0DB4BC7F8583107F5DC73A3F5FA
:10223000DA731B68002B0AD0D7F8A8319B0007F58A
:10224000DC72A2F5DA72126813441B6801E04FF0E9
:10225000FF43C7F8543197ED577AD7ED567AB4EE6D
:10226000E77AF1EE10FA1BD5D7F8A8319B00D7F822
:10227000CC211344D7F858211A6007F5A672D7F875
:10228000A83113441B78002B2ED107F5A672D7F87E
:10229000A831134401221A700123C7F8B03123E09A
:1022A00097ED577AD7ED557AB4EEE77AF1EE10FA5A
:1022B0001ADDD7F8A8319B00D7F8CC211344D7F802
:1022C00054211A6007F5A672D7F8A83113441B7879
:1022D000002B09D107F5A672D7F8A83113440122C3
:1022E0001A700123C7F8B03107F5A672D7F8A831E4
:1022F00013441B78002B04D0D7F8AC310133C7F856
:10230000AC31D7F8A8310133C7F8A831D7F8A831D4
:10231000062B7FF76CAFD7F8B031002B00F00382AB
:10232000D7F8AC31062B00F300820023C7F8A431A4
:1023300052E0D7F8A4319B0007F5DC72A2F5D47205
:10234000126813441B68C7F8A0310023C7F89C31FA
:102350002FE007F5A672D7F89C3113441B78002BA9
:1023600022D0D7F8A4211346DB009B1A9B001A4603
:1023700007F5DC73A3F5D2731B681A44D7F89C31B8
:102380009B00134493ED007AD7F89C319B00D7F85B
:10239000CC211344D3ED007A67EE277A97ED687A63
:1023A00077EE677AC7ED687AD7F89C310133C7F8C2
:1023B0009C31D7F89C31062BCBDDD7F8A4319B009C
:1023C00003F5DC733B44843BD7F8A0211A60D7F8AF
:1023D000A4310133C7F8A431D7F8A431052BA8DD07
:1023E0000023C7F898310023C7F8943119E007F5A6
:1023F000A672D7F8943113441B78002B0CD1D7F870
:1024000098315A1CC7F898219B0003F5DC733B44B4
:10241000D7F8942143F8A02CD7F894310133C7F8AA
:102420009431D7F89431062BE1DD0023C7F89031C1
:102430000FE007F5DC73A3F5CE72D7F890319B005F
:1024400013444FF000021A60D7F890310133C7F8F7
:102450009031D7F8983103FB03F3D7F890219A42D3
:10246000E7DB0023C7F88C310EE0D7F88C319B00F6
:1024700003F5DC733B44BC3B4FF000021A60D7F815
:102480008C310133C7F88C31D7F88C21D7F89831CB
:102490009A42EADB0023C7F88831B9E0D7F88831DF
:1024A0009B0003F5DC733B4453F8A03CC7F8643150
:1024B0000023C7F884315FE0D7F884319B0003F52F
:1024C000DC733B4453F8A03CC7F860314FF0000385
:1024D000C7F880310023C7F87C3132E0D7F87C217F
:1024E0001346DB009B1A9B001A4607F5DC73A3F525
:1024F000D2731B681A44D7F864319B00134493EDE0
:10250000007AD7F87C211346DB009B1A9B001A4601
:1025100007F5DC73A3F5D2731B681A44D7F8603152
:102520009B001344D3ED007A67EE277A97ED607A2B
:1025300077EE277AC7ED607AD7F87C310133C7F898
:102540007C31D7F87C31052BC8DDD7F88831D7F836
:10255000982103FB02F2D7F88431134407F5DC72AB
:10256000A2F5CE729B001344D7F880211A60D7F8E9
:1025700084310133C7F88431D7F88421D7F89831F2
:102580009A4299DB4FF00003C7F878310023C7F86F
:1025900074312AE0000080FFD7F874211346DB0075
:1025A0009B1A9B001A4607F5DC73A3F5D2731B68D0
:1025B0001A44D7F864319B00134493ED007AD7F89E
:1025C00074319B0003F5DC733B44843BD3ED007A0C
:1025D00067EE277A97ED5E7A77EE277AC7ED5E7A17
:1025E000D7F874310133C7F87431D7F87431052B3B
:1025F000D2DDD7F888319B0003F5DC733B44BC3B4C
:10260000D7F878211A60D7F888310133C7F88831B4
:10261000D7F88821D7F898319A42FFF63FAF07F5EF
:10262000DC73A3F5D673D3ED007A67EEA77AC7ED16
:102630005A7A0023C7F870312AE0D7F87031D7F8FA
:10264000982103FB02F2D7F87031134407F5DC72CE
:10265000A2F5CE729B00134493ED007AD7F8703147
:10266000D7F8982103FB02F2D7F870311344D7ED65
:102670005A7A77EE277A07F5DC72A2F5CE729B00C4
:102680001344C3ED007AD7F870310133C7F87031C5
:10269000D7F87021D7F898319A42CEDBD7F8983125
:1026A000002B33DD07F1E00307F1FC0207F11C0109
:1026B000D7F89801FFF745FA0346002B02D04FF0F8
:1026C000FF3334E00023C7F86C3119E0D7F86C31E0
:1026D0009B0003F5DC733B4453F8A03C9B00D7F808
:1026E000CC211344D7F86C21920002F5DC723A44F5
:1026F000D83A12681A60D7F86C310133C7F86C31D8
:10270000D7F86C21D7F898319A42DFDBD7F8B4318B
:102710000133C7F8B431D7F8B421D7F8C8319A4299
:10272000FFF65BAD02E000BF00E000BF00231846EB
:1027300007F5DE77BD4690BD80B485B000AF786008
:10274000224BFB607B6893ED037AD7ED037A77EE3B
:10275000676A7B6893ED017AC6EE877A7B68C3ED82
:10276000047A7B6893ED027AD7ED037A77EE676A95
:102770007B6893ED007AC6EE877A7B68C3ED067AB4
:102780007B6893ED037A7B68D3ED046A7B68D3EDB5
:10279000017A66EEA77A77EE677A7B68C3ED057AF1
:1027A0007B6893ED027A7B68D3ED066A7B68D3ED94
:1027B000007A66EEA77A77EE677A7B68C3ED077AD0
:1027C00000BF1437BD465DF8047B70470080BB44F2
:1027D00080B485B000AF786087ED000A7B68D3EDE8
:1027E000007A97ED007AB4EEE77AF1EE10FA02D5AE
:1027F0007B681B683B607B68D3ED017A97ED007ABC
:10280000B4EEE77AF1EE10FA02DD7B685B683B60BC
:102810007B6893ED047AD7ED007A27EE277A7B6800
:10282000D3ED057A77EE277AC7ED037A7B68D3ED8F
:10283000027A97ED037AB4EEE77AF1EE10FA02D558
:102840007B689B68FB607B68D3ED037A97ED037A26
:10285000B4EEE77AF1EE10FA02DD7B68DB68FB602C
:10286000FB6807EE903AB0EE670A1437BD465DF894
:10287000047B704780B586B000AFF860B9607A60BD
:1028800000237B611DE07B695B01BA68D1187B691D
:102890009B00FA681344D3ED007AB0EE670A08464D
:1028A000FFF796FFF0EE407A7B695B007A6813448D
:1028B000FDEEE77A17EE902A12B21A807B69013397
:1028C0007B617B69062BDEDD00BF00BF1837BD468C
:1028D00080BD80B598B002AF7861396187ED030A99
:1028E000BA607B6000237B6518E07B6D5B01BA6892
:1028F00013441A687B6D9B0058333B44243B1A6099
:102900007B6D5B01BA6813445A687B6D9B0058333A
:102910003B44403B1A607B6D01337B657B6D062B2E
:10292000E3DD07F1180107F134023B6E01937B6888
:1029300000930B4697ED030A39697869FFF708FCA5
:1029400038653B6D002B01D03B6D05E07A6EB968B0
:10295000386EFFF78FFF002318465837BD4680BDFD
:1029600080B485B000AF03463960FB713B681B88BB
:10297000DAB2FB795340FB73FB7B1B015AB297F928
:102980000F3053405BB2FB733B681B881B0A9BB242
:102990001AB2FB7B1B021BB253401AB2FB7BDB005B
:1029A0001BB253401AB2FB7B1B09DBB21BB2534074
:1029B0001BB29AB23B681A8000BF1437BD465DF85F
:1029C000047B704780B483B000AF78607B684FF6BB
:1029D000FF721A8000BF0C37BD465DF8047B70475C
:1029E00080B584B000AF78600B467B8007F10E03A2
:1029F0001846FFF7E7FF09E07B685A1C7A601B78EE
:102A000007F10E0211461846FFF7AAFF7B885A1EEF
:102A10007A80002BF0D1FB8918461037BD4680BD67
:102A200080B586B000AFF860B9601346FB80BB6824
:102A30007B6107E07B695A1C7A611B78F96818464C
:102A4000FFF78EFFFB885A1EFA80002BF2D100BFE1
:102A500000BF1837BD4680BD80B483B000AF78603A
:102A60007B6800221A607B6800225A607B680E4AED
:102A70009A607B680D4ADA607B680D4A1A617B6850
:102A80000C4A5A617B680C4A9A617B680B4ADA618E
:102A90007B680B4A1A627B680A4A5A6200BF0C378D
:102AA000BD465DF8047B704767E6096A85AE67BB83
:102AB00072F36E3C3AF54FA57F520E518C68059B20
:102AC000ABD9831F19CDE05B80B4CFB000AF07F561
:102AD0009C73A3F59A73186007F59C73A3F59C7318
:102AE000196007F59C73A3F59A731B689B68C7F878
:102AF000343107F59C73A3F59A731B68DB68C7F83C
:102B0000303107F59C73A3F59A731B681B69C7F8EE
:102B10002C3107F59C73A3F59A731B685B69C7F8A2
:102B2000283107F59C73A3F59A731B689B69C7F856
:102B3000243107F59C73A3F59A731B68DB69C7F80A
:102B4000203107F59C73A3F59A731B681B6AC7F8BD
:102B50001C3107F59C73A3F59A731B685B6AC7F871
:102B600018310023C7F8143116E0D7F814319B0050
:102B700007F59C72A2F59C7212681344196807F558
:102B80009C73A3F59673D7F8142143F82210D7F855
:102B900014310133C7F81431D7F814310F2BE4DDA9
:102BA0001023C7F8143169E0D7F814319A1E07F5DD
:102BB0009C73A3F5967353F822304FEA7342D7F80B
:102BC0001431991E07F59C73A3F5967353F82130C1
:102BD0004FEAF3435A40D7F81431991E07F59C7316
:102BE000A3F5967353F821309B0A5A40D7F8143155
:102BF000D91F07F59C73A3F5967353F821301A4437
:102C0000D7F81431A3F10F0107F59C73A3F5967360
:102C100053F821304FEAF311D7F81431A3F10F0024
:102C200007F59C73A3F5967353F820304FEAB3432E
:102C30005940D7F81431A3F10F0007F59C73A3F5A1
:102C4000967353F82030DB084B401A44D7F8143100
:102C5000A3F1100107F59C73A3F5967353F8213087
:102C6000D11807F59C73A3F59673D7F8142143F890
:102C70002210D7F814310133C7F81431D7F81431C2
:102C80003F2B91DD0023C7F8143178E0D7F82431C9
:102C90004FEAB312D7F824314FEAF3235A40D7F85A
:102CA00024314FEA73635A40D7F818311A44D7F8E1
:102CB0002411D7F820311940D7F82431D843D7F858
:102CC0001C3103404B401A446E49D7F8143151F877
:102CD00023301A4407F59C73A3F59673D7F81411A3
:102CE00053F821301344C7F81031D7F834314FEA84
:102CF000B302D7F834314FEA73335A40D7F834313E
:102D00004FEAB3535A40D7F83011D7F82C31594015
:102D1000D7F834311940D7F83001D7F82C310340B7
:102D20004B401344C7F80C31D7F81C31C7F81831A1
:102D3000D7F82031C7F81C31D7F82431C7F8203133
:102D4000D7F82821D7F810311344C7F82431D7F821
:102D50002C31C7F82831D7F83031C7F82C31D7F8E3
:102D60003431C7F83031D7F81021D7F80C3113447B
:102D7000C7F83431D7F814310133C7F81431D7F814
:102D800014313F2B82DD07F59C73A3F59A731B6802
:102D90009A68D7F834311A4407F59C73A3F59A73EF
:102DA0001B689A6007F59C73A3F59A731B68DA6831
:102DB000D7F830311A4407F59C73A3F59A731B6852
:102DC000DA6007F59C73A3F59A731B681A69D7F844
:102DD0002C311A4407F59C73A3F59A731B681A618A
:102DE00007F59C73A3F59A731B685A69D7F82831C5
:102DF0001A4407F59C73A3F59A731B685A6107F58B
:102E00009C73A3F59A731B689A69D7F824311A4406
:102E100007F59C73A3F59A731B689A6107F59C7379
:102E2000A3F59A731B68DA69D7F820311A4407F5BD
:102E30009C73A3F59A731B68DA6107F59C73A3F57D
:102E40009A731B681A6AD7F81C311A4407F59C73E9
:102E5000A3F59A731B681A6207F59C73A3F59A731E
:102E60001B685A6AD7F818311A4407F59C73A3F502
:102E70009A731B685A6200BF07F59E77BD465DF8DE
:102E8000047B70479C55010880B59CB000AFF8608A
:102E9000B9607A60BB68FB66FB681B68FB65FB6812
:102EA0001A687B68DB001A44FB681A60FB681B68C1
:102EB000FA6D9A4204D9FB685B685A1CFB685A6039
:102EC000FB6DDB0803F03F03BB6657E0BB6EC3F14D
:102ED00040037B667A687B6E9A4201D27B687B6690
:102EE000FB6803F12802BB6E13447A6EF96E184634
:102EF0000FF08BFABA6E7B6E1344BB66FA6E7B6E74
:102F00001344FB667A687B6ED31A7B60BB6E402BE2
:102F100034D1FB682833BB6500233B6623E03B6E5E
:102F20009B00BA6D13447B6507F110023B6E9B005A
:102F300013443B657B6D03331A783B6D1A707B6DD0
:102F40009A1C3B6D013312781A707B6D5A1C3B6DD5
:102F5000023312781A703B6D03337A6D12781A704F
:102F60003B6E01333B663B6E0F2BD8DD07F1100340
:102F70001946F868FFF7A8FD0023BB667B68002BA5
:102F8000A4D100BF00BF7037BD4680BD80B598B0EA
:102F900000AF786039607B681B68DB0803F03F0393
:102FA000FB65FB6DC3F1770303F03F030133BB65A2
:102FB0007B6808337B6580233B7307F10C03013387
:102FC0004722002118460FF038F97B681A68BB6D5C
:102FD0000733D2B260333B4403F8542C7B681B6840
:102FE0001A0ABB6D0633D2B260333B4403F8542C4B
:102FF0007B681B681A0CBB6D0533D2B260333B444F
:1030000003F8542C7B681B681A0EBB6D0433D2B2D4
:1030100060333B4403F8542C7B685A68BB6D033320
:10302000D2B260333B4403F8542C7B685B681A0AC5
:10303000BB6D0233D2B260333B4403F8542C7B683F
:103040005B681A0CBB6D0133D2B260333B4403F8AA
:10305000542C7B685B681B0ED9B207F10C02BB6D68
:1030600013440A461A70BB6D03F1080207F10C0302
:1030700019467868FFF708FF7B6DDA783B681A70AD
:103080003B6801337A6D92781A703B6802337A6D2F
:1030900052781A703B6803337A6D12781A703B6865
:1030A00004337A6DD2791A703B6805337A6D927960
:1030B0001A7000BF6037BD4680BD000080B483B089
:1030C00000AF0346FB71FA7913465B001344DB0043
:1030D000034A134418460C37BD465DF8047B70471D
:1030E000480B002080B483B000AF0346FB71FB792E
:1030F00040F2231202FB03F3034A134418460C3731
:10310000BD465DF8047B7047E40C0020B0B5A0B06C
:1031100000AFF860B9607A60FB70FB68002B05D0E7
:10312000FB681B7803F00103002B01D100234FE063
:10313000FB685A78BB681A70FB68D3E90223C7E9B9
:103140000423BB68013307F11001062218460FF073
:103150005CF9FB68D3E90223541C43F10005FB68CA
:10316000C3E9024507F118031846FFF775FCFB6831
:1031700003F1100107F1180320221846FFF784FE1F
:10318000FA7807F1180379681846FFF77DFE97F87B
:10319000942007F11803D7F890101846FFF774FE33
:1031A00007F118030222D7F898101846FFF76CFEB3
:1031B00007F118030722B9681846FFF765FEBB68D8
:1031C000DA1D07F1180311461846FFF7DFFE0D233D
:1031D00018468037BD46B0BD80B483B000AF78607C
:1031E0000B46FB7002E0FB78013BFB70FB78012B88
:1031F00006D9FB78013B7A6813441B78002BF2D088
:10320000FB7818460C37BD465DF8047B704700001C
:10321000B0B5AAB000AFF860B9607A60FB68002B67
:1032200001D101233EE17B680233C7F8A0307B68FF
:1032300003F58B73C7F89C30D7F89C300733C7F879
:10324000983007F12C031846FFF706FCFB6803F1E2
:10325000100107F12C0320221846FFF715FE07F195
:103260002C030A22D7F8A0101846FFF70DFE7B6842
:1032700003F10C017B68DB781A4607F12C03184632
:10328000FFF702FE7B6803F58A7107F12C03022227
:103290001846FFF7F9FD07F12C030722D7F89C1019
:1032A0001846FFF7F1FD07F1240207F12C03114640
:1032B0001846FFF76BFE07F124030622D7F8981093
:1032C00018460EF0AAFF0346002B05D0FB68022229
:1032D00083F834200023E5E0D7F89C301B7887F88A
:1032E00097304FF000024FF00003C7E90623D7F8EC
:1032F0009C30591C07F11803062218460FF085F878
:10330000BB68002B05D1FB68032283F8342000231F
:10331000C8E00023A7F8A6302BE07B68D979B7F87E
:10332000A620B8681346DB001344034403331B781C
:10333000994219D17B68197AB7F8A620B868134664
:10334000DB001344034404331B7899420CD1B7F8D3
:10335000A620B9681346DB0013440B4402331B78E4
:1033600097F897209A420BD0B7F8A6300133A7F808
:10337000A630BB681B88B7F8A6209A42CDD300E0E0
:1033800000BFBB681B88B7F8A6209A4246D1BB682D
:103390001B880F2B05D9FB68042283F834200023F7
:1033A00080E0D7E906234149541843F10005FB6842
:1033B000D3E90223944275EB030305D2FB6805228F
:1033C00083F8342000236DE0B7F8A6207B68D87915
:1033D000B9681346DB0013440B44033302461A70EA
:1033E000B7F8A6207B68187AB9681346DB00134447
:1033F0000B44043302461A70B7F8A620B968134686
:10340000DB0013440B44023397F897201A70BB6813
:103410001B8801339AB2BB681A8021E04FF000028A
:103420004FF00003C7E90423B7F8A6201346DB00DA
:103430001344BA681344591D07F1100306221846B5
:103440000EF0E3FFD7E90623D7E90401904271EBC0
:10345000030305D3FB68062283F83420002321E010
:10346000B7F8A6201346DB001344BA681344581D6E
:10347000D7F89C300133062219460EF0C6FFD7E973
:103480000623F968D1E90201904271EB030304D2EB
:10349000D7E90623F968C1E90223FB68012283F812
:1034A000342001231846A837BD46B0BD808D5B008F
:1034B000F0B58FB004AFF8607B600B46FB7213462B
:1034C000BB727B681B7B03F00203002B14BF01233C
:1034D000002387F8263097F8263083F00103DBB20B
:1034E000002B0CD07B681B69002B08D07B681B6904
:1034F0001B7803F00103002B01D0012300E000231F
:1035000087F8253097F8253003F0010387F8253038
:1035100097F82530002B01D00D2300E0002387F819
:1035200024300A2387F8273097F82630002B06D05E
:10353000FB68FE229A70062387F8273002E0FB68BA
:10354000FD229A7097F82630002B0AD1FB680C33C5
:1035500097F8442011461846FFF73EFE03461A46E8
:1035600001E097F84020FB68DA70FB68FA7ADA71BC
:10357000FB68BA7A1A72FB6800221A7197F8253034
:10358000002B06D0FB681B7943F00103DAB2FB681D
:103590001A71FB6800225A717B689A79FB689A71EC
:1035A0007B689B790133DAB27B689A71FB689B7800
:1035B0003B76FB68DB787B7697F82630002B13D0C0
:1035C000FB689B79BB76FB68DB79FB76FB681B7A33
:1035D0003B77FB685A7A997A09020A43DB7A1B0423
:1035E0001343DBB27B7730E0FB681B79BB76FB686B
:1035F0005B79FB76FB689B793B77FB68DB797B77B4
:10360000FB681B7ABB77FB685A7A997A09020A43EE
:10361000DB7A1B041343DBB2FB77FB685A7A997A97
:1036200009020A43DB7A1B0413431B12DBB287F83F
:103630002030FB685A7A997A09020A43DB7A1B0424
:1036400013431B14DBB287F8213097F827309BB265
:10365000013B9AB207F11803013311461846FFF7F0
:10366000BFF90346FB82FB6803F10C01FB68DB78C2
:103670001A4607F116031846FFF7D2F907F11602AA
:1036800097F8483011461846FFF76AF9F98AFB683F
:103690000C33FA68D2781344CAB21A70FB8A1B0A38
:1036A00099B2FB6803F10C02FB68DB780133134429
:1036B000CAB21A70FA8AFB681A8097F82530002B74
:1036C0001AD07B681C69FB6803F58B75FB680C33AB
:1036D000FA68D278F9680C31F868C078014497F834
:1036E000276007F1180002910192009333460246C9
:1036F00029462046FFF70AFDFB68DB781A4697F853
:1037000027309BB213449AB297F824309BB21344EB
:103710009BB202339BB218462C37BD46F0BD80B534
:1037200088B004AF7860084611461A460346FB701D
:103730000B46BB7013467B707B781846FFF7BEFCC8
:10374000F860BA78F97897F8203002933B7F0193BC
:103750003B7E0093FB687868FFF7AAFE0346184695
:103760001037BD4680BD80B586B004AF786008468E
:1037700011461A460346FB700B46BB7013467B701E
:10378000BA78F9783B7D02933B7C01937B78009378
:1037900000237868FFF7C3FF034618460837BD4685
:1037A00080BD80B483B000AF78607B689B780133C4
:1037B000DAB27B689A7000BF0C37BD465DF8047BB7
:1037C000704780B586B000AF786039603B68DB78C1
:1037D000FB733B689B78FE2B3AD10023FB750523D6
:1037E000BB753B689A787B681A707B680133FA7BFB
:1037F0001A707B6802333A6892791A707B680333D7
:103800003A68D2791A707B6804333A68127A1A706F
:103810003B685A7A997A09020A43DB7A1B041343FC
:103820001A467B680533D2B21A707B68981D3B68D4
:1038300003F10C013B68DB781A460EF0E6FDBB7D18
:103840003A68D278134401337A6813443B616CE0E0
:103850003B680C33FA7B11461846FFF7BDFC034664
:10386000FB730923BB753B689A787B681A707B6889
:103870000133FA7B1A707B6802333A6812791A7046
:103880007B6803333A6852791A707B6804333A686C
:1038900092791A707B6805333A68D2791A707B681E
:1038A00006333A68127A1A703B685A7A997A090292
:1038B0000A43DB7A1B0413431A467B680733D2B2F0
:1038C0001A703B685A7A997A09020A43DB7A1B0418
:1038D00013431A0A7B680833D2B21A703B685A7ACB
:1038E000997A09020A43DB7A1B0413431A0C7B689A
:1038F0000933D2B21A707B6803F10A003B680C33BB
:10390000FA7B19460EF081FDBA7DFB7B134401332F
:103910007A6813443B613B681B7903F00103002B79
:1039200001D00D2300E00023FB753B681B889BB290
:10393000DAB23B691A703B681B889BB21B0A9AB2C9
:103940003B690133D2B21A70FB7D002B08D03B6972
:10395000981C3B6803F58B73FA7D19460EF055FDF4
:10396000BB7D9AB2FB7B9BB213449AB2FB7D9BB2A8
:1039700013449BB203339BB218461837BD4680BD33
:1039800080B584B000AF78600023FB8107F10E039F
:103990001846FFF717F8FA897B681A8000BF1037BE
:1039A000BD4680BD80B584B000AF78600B46FB702B
:1039B0007B681B889BB2FB8107F10E02FB781146E6
:1039C0001846FEF7CDFFFA897B681A8000BF1037D2
:1039D000BD4680BD80B487B000AF786000237B61B6
:1039E00040F277133B6125E07A693B691344013368
:1039F0005B08FB601E49FA6813465B0013449B009A
:103A00000B441B687A689A4203D2FB68013B3B6116
:103A100010E01749FA6813465B0013449B000B44FF
:103A20001B687A689A4202D9FB687B6102E0FB68F6
:103A30007B6103E07A693B699A42D5D30C497A6984
:103A400013465B0013449B000B441B687A689A4240
:103A500001D0002306E07A6913465B0013449B0003
:103A6000034A134418461C37BD465DF8047B704773
:103A70009C56010880B588B000AFF860B9603B6023
:103A80001346FB71BB6800221A70BB68DB780F2BF2
:103A900000F26C8201A252F823F000BFDD3A000868
:103AA000DD3A00083B3B0008A13B0008D53B00087D
:103AB000ED3B0008053C00081D3C0008353C0008B3
:103AC0008F3C0008DB3C0008373D00086F3D0008D4
:103AD000FB3D0008FB3D0008B73E0008FB79FD2BCD
:103AE00013D1BB680222DA70FB680022DA70FB682F
:103AF000FA799A70BB681B7B23F00103DAB2BB68CA
:103B00001A73F868FFF73CFF27E2FB79FE2B40F0C1
:103B10002482BB680222DA70FB680022DA70FB683C
:103B2000FA799A70BB681B7B43F00103DAB2BB6879
:103B30001A73F868FFF724FF0FE2BB681B78002BAD
:103B40000FD0BB685B780133DAB2BB685A70B868D3
:103B5000FFF727FEBB6800221A70BB680122DA70EB
:103B600004E2FB68FA79DA70BB6800221A71FB790B
:103B70001946F868FFF716FFBB681B7B03F00103CB
:103B8000002B09D0FB6800221A71FB6800225A71D1
:103B9000BB680522DA70E9E1BB680322DA70E5E16F
:103BA000FB68FA791A71FB681B79012B09D9B8688F
:103BB000FFF7F7FDBB6800221A70BB680122DA70BC
:103BC000D4E1FB791946F868FFF7ECFEBB680422E4
:103BD000DA70CBE1FB68FA795A71FB791946F8681B
:103BE000FFF7E0FEBB680522DA70BFE1FB68FA79F7
:103BF0009A71FB791946F868FFF7D4FEBB68062274
:103C0000DA70B3E1FB68FA79DA71FB791946F86882
:103C1000FFF7C8FEBB680722DA70A7E1FB68FA79F4
:103C20001A72FB791946F868FFF7BCFEBB680822D8
:103C3000DA709BE1FB7923F07F43FA68D9B2002068
:103C400001435172190AC9B20020014391721B0C41
:103C5000DBB200210B43D372FB791946F868FFF7FA
:103C6000A1FEBB681B7B03F00103002B0BD0FB689C
:103C7000DB78002B03D0BB680B22DA7076E1BB68DF
:103C80000C22DA7072E1BB680922DA706EE1FB681F
:103C90005A7A997A09020A43DB7A1B0413431A46BB
:103CA000FB791B02134323F07F42FB68D1B2002053
:103CB00001435972110AC9B2002001439972120CD2
:103CC000D2B200210A43DA72FB791946F868FFF78D
:103CD00069FEBB680A22DA7048E1FB685A7A997A71
:103CE00009020A43DB7A1B0413431A46FB791B04BF
:103CF000134323F07F42FB68D1B200200143597285
:103D0000110AC9B2002001439972120CD2B20021EB
:103D10000A43DA72FB791946F868FFF743FEFB683D
:103D2000DB78002B03D0BB680B22DA701EE1BB6886
:103D30000C22DA701AE1FB6803F10C02BB681B79F4
:103D4000591CC8B2B96808711344FA791A70FB7922
:103D50001946F868FFF726FEBB681A79FB68DB781E
:103D60009A4240F0FC80BB680C22DA70F7E0FB68F6
:103D70005A7A997A09020A43DB7A1B0413431846DC
:103D8000FFF728FEB861BB69002B02D0BB691B7925
:103D900000E00023FB75FB7D1946F868FFF702FE83
:103DA000FA79FB681B889BB2DBB29A4203D0BB68EE
:103DB0000E22DA7002E0BB680D22DA70FB68FA7935
:103DC00083F81421BB69002B00F0CB80BB681A7903
:103DD000BB699B799A4280F0C480FB680C33BA6857
:103DE00012799818BB699B791A46BB681B79D31A5C
:103DF0001A4600210EF021FAB3E0BB68DB780E2BE7
:103E000008D0FB799AB2FB681B889BB21B0A9BB255
:103E10009A4203D0BB6802221A7002E0BB680122FA
:103E20001A70FB68FA7983F81521FB681B7903F097
:103E30000103002B0ED0BB680F22DA70BB680D2285
:103E40005A73BB681B78022B00F08D80BB68002280
:103E50001A7088E0BB681B69002B1FD0BB681B6908
:103E60001B6B002B13D0BB681B691A6BFB68597A5C
:103E7000987A00020143DB7A1B040B431946B868A9
:103E80009047034683F00103DBB2002B06D0BB68EA
:103E90001B78022B02D0BB6803221A70BB68012278
:103EA000DA703B68002B5ED040F22312F968386864
:103EB0000EF0ABFA57E0BB685B7BC3F10D03FA6809
:103EC0001344FA7983F81621BB685B7B013BDAB2B5
:103ED000BB685A73BB685B7B002B46D1BB68186913
:103EE000BB685B69FA681946FFF792F90346FB77EE
:103EF000FB7F83F00103DBB2002B17D0BB681B698B
:103F00001B6B002B12D0BB681B691A6BFB68597ABC
:103F1000987A00020143DB7A1B040B431946B86808
:103F200090470346002B01D00123FB77FB7F002B3A
:103F300003D0BB6801221A7002E0BB6803221A702A
:103F4000BB680122DA703B68002B0ED040F22312CE
:103F5000F96838680EF059FA07E000BF06E000BFC4
:103F600004E000BF02E000BF00E000BFBB681B78B8
:103F7000012B10D1FB689A79BB685A71BB681B8909
:103F8000002B02D1BB6800225A81BB681B89013318
:103F90009AB2BB681A813B68002B03D0FB68DA78C1
:103FA0003B68DA70BB6A002B1AD0BB68DA78BB6A50
:103FB000DA70BB681A79BB6A1A71BB685B79013326
:103FC000DAB2BB6A5A71BB681A89BB6A1A81BB68CC
:103FD0009B781A46BB6A5A81BB681A7BBB6A1A7304
:103FE000BB6800229A70BB681B78022B10D13B681B
:103FF000002B0DD0FB6893F814311AB2FB6893F8CC
:1040000015311B021BB213431BB29AB23B681A80D4
:10401000BB681B7818462037BD4680BD90B587B079
:1040200002AFBA607B600346FB730B46BB73FB7B3E
:104030001846FFF757F80446FB7B1846FFF73EF893
:104040000146BA7B7B680093BB682046FFF712FDF0
:10405000034618461437BD4690BD80B588B000AF02
:10406000BA607B600346FB730B46BB73B97BF87B7E
:104070007B68BA68FFF7D2FF0346FB77FB7F022B12
:1040800002D0FB7F032B20D1FB7B1846FFF72AF8D9
:10409000B861FB7B1846FFF711F878617869FFF784
:1040A00080FB7B6900221A707B690122DA70BB7B7E
:1040B000FD2B08D17B690222DA70BB690022DA701D
:1040C000B869FFF75DFC002300E0FB7F184620374E
:1040D000BD4680BD80B584B000AFF860B9607A603D
:1040E000BB68002B05D17A680021F8680EF0A5F8AE
:1040F00004E07A68B968F8680EF087F900BF1037F5
:10410000BD4680BDF0B593B002AFBA607B60034698
:10411000FB730B46BB737B687B61BB6DBB61FB6D47
:10412000FB61B7F860303B84B7F864307B84B7F844
:104130006830BB84B7F87030FB84B7F874303B85C7
:10414000B7F878307B85B7F87C30BB85B7F880301E
:10415000FB85B7F884303B8697F86C3087F83230AF
:10416000D7F88830C7F83330D7F88C30C7F83730F5
:10417000D7F89030C7F83B30BB680C3307F1140414
:104180009C4604F1200E654626460FCE28606960E5
:10419000AA60EB6010340CF1100C7445F3D1624648
:1041A000234603CB1060516019889B78118193726C
:1041B000BB68002242F001025A7200229A72002269
:1041C000DA72BA7BF97B7C2301932B2300931F23A4
:1041D000B868FFF7C8FA034618464437BD46F0BD35
:1041E00080B58CB002AF3A61FB6087ED020AC7ED83
:1041F000010A0346FB750B46BB75FB68BB61BB68D8
:10420000FB617B683B623B8EBB84BB8EFB843B695E
:104210000C3307F11801102218460EF0F6F83B692E
:10422000002242F01D025A7200229A720022DA72B3
:10423000BA7DF97D73230193102300930E2338690F
:10424000FFF791FA034618462837BD4680BD90B562
:1042500087B002AFBA607B600346FB730B46BB734B
:104260007B681C687B68D3ED017A7B6893ED027AEA
:104270007B68B3F90C307A68B2F90E20B97BF87B11
:1042800001920093F0EE470AB0EE670A2346BA683F
:10429000FFF7A6FF034618461437BD4690BD80B50C
:1042A00094B002AF3A62FB6187ED060AC7ED050ADA
:1042B00087ED041AC7ED031A87ED022AC7ED012A1C
:1042C000034687F827300B4687F82630FB69FB62E8
:1042D000BB693B637B697B633B69BB63FB68FB63D7
:1042E000BB683B647B687B643B6A0C3307F12C0141
:1042F0001C2218460EF089F83B6A002242F01E028A
:104300005A7200229A720022DA7297F8262097F8E1
:104310002710272301931C2300931C23386AFFF7DF
:1043200022FA034618464837BD4680BD80B584B0A2
:1043300000AFBA607B600346FB730B46BB737B68C0
:104340001A687B68D3ED017A7B6893ED027A7B680B
:10435000D3ED036A7B6893ED046A7B68D3ED055A5D
:104360007B6893ED065AB97BF87BF0EE452AB0EEF8
:10437000652AF0EE461AB0EE661AF0EE470AB0EE85
:10438000670A1346BA68FFF78AFF034618461037D4
:10439000BD4680BD80B58EB002AF3A6187ED030A9D
:1043A000C7ED020A1A4687ED011AC7ED001A034647
:1043B000FB750B46BB751346BB82FB68FB61BB6894
:1043C0003B627B687B623B68BB62BB8ABB853B8F81
:1043D000FB853B690C3307F11C01142218460EF0D3
:1043E00014F83B69002242F04A025A7200229A7283
:1043F0000022DA72BA7DF97D14230193142300930D
:1044000014233869FFF7AFF9034618463037BD4625
:1044100080BD90B587B002AFBA607B600346FB7386
:104420000B46BB737B68D3ED007A7B6893ED017A12
:104430007B68B3F910407B685B8A7A68D2ED026AC8
:104440007A6892ED036AB97BF87B0093F0EE461A26
:10445000B0EE661A2346F0EE470AB0EE670ABA6875
:10446000FFF798FF034618461437BD4690BD80B548
:1044700084B000AF786039607B68DB78212B28BF7F
:104480002123FB732122002138680DF0D6FE7B68C2
:104490000C33FA7B194638680DF0B7FF00BF1037B0
:1044A000BD4680BD80B584B000AF786039607B6860
:1044B000DB78352B28BF3523FB7335220021386884
:1044C0000DF0BBFE7B680C33FA7B194638680DF0A3
:1044D0009CFF00BF1037BD4680BD80B58CB002AFD9
:1044E000BA607B6087ED000A0346FB730B46BB7323
:1044F0007B687B613B68BB6107F1140308330A22C8
:10450000396B1846FFF7E6FDBB680C3307F1140161
:10451000122218460DF079FFBB68002262F00402F7
:104520005A7200229A720022DA72BA7BF97BAA23AD
:104530000193122300931223B868FFF714F903467E
:1045400018462837BD4680BDF0B593B002AF3A603B
:104550001A460346FB710B46BB7113467B717B7990
:104560003B72B7F85C30A7F83B3097F8603087F8BB
:104570003D3007F1080301333222B96D1846FFF7C9
:10458000A9FD3B680C3307F108049C4604F1300E8A
:10459000654626460FCE28606960AA60EB6010343D
:1045A0000CF1100C7445F3D1634622461068186074
:1045B00092889A803B68002262F002025A720022BE
:1045C0009A720022DA72BA79F97953230193362369
:1045D000009333233868FFF7C6F80346184644377C
:1045E000BD46F0BDB0B588B004AFBA607B6003468D
:1045F000FB730B46BB737B681D787B6801337A685D
:10460000B2F8332092B2796891F83510BC7BF87B10
:104610000291019200932B46BA682146FFF794FF5E
:10462000034618461037BD46B0BD80B588B002AF0E
:104630003A601A460346FB710B46BB7113467B7109
:10464000BB6AFB607B793B7497F820307B7497F8EA
:104650002430BB7497F82C30FB7403233B753B6804
:104660000C3307F10C01092218460DF0CEFE3B6811
:1046700000225A7200229A720022DA72BA79F9790B
:10468000322301930923009309233868FFF76BF85D
:10469000034618461837BD4680BD000090B5DDB012
:1046A00000AF07F5B873A3F5B67318600023C7F819
:1046B0006C31414802F0F4F8F0EE406AB0EE607AF6
:1046C000F0EE417AC7ED566A87ED577AC7ED587A12
:1046D0003A4802F0BFFFB0EE406AF0EE606AB0EE1A
:1046E000417AF0EE617A87ED526AC7ED536A87ED41
:1046F000547AC7ED557AD7ED567A97ED577A07F584
:10470000A473F0EE470AB0EE670A184603F06AF8A1
:1047100087ED5A0A2A4B1C4607F5AC7393E807004D
:1047200084E80700264AD7F868319360254B1C4679
:1047300007F5A4730FCB84E80F0009F0D1FBC7F88D
:104740006401D7F86421D7F86C31D31AB3F5967F9A
:104750002DD307F5967300221A605A609A60DA60CA
:104760001A615A619A6103F0DDFD0346C7F82C31E6
:10477000D7F85831C7F83031D7F85C31C7F8343141
:10478000D7F86831C7F838310F4B18790E4B597983
:1047900007F5967307F10802FFF7C8FD07F1080354
:1047A000184601F0D1F8D7F86431C7F86C310A2007
:1047B00009F03DFC7DE700BFF40A0020100B00204B
:1047C000B80A0020C40A00203008002090B5DBB0F1
:1047D00000AF07F5B473A3F5B27318600023C7F8F0
:1047E0006431394802F0E0FBF0EE406AB0EE607AE6
:1047F000F0EE417AC7ED556A87ED567AC7ED577AE4
:10480000324B1C4607F5AA7393E8070084E80700BB
:1048100009F066FBC7F86001D7F86021D7F864316A
:10482000D31A632B4CD94FF00003C7F840314FF037
:104830000003C7F84431D7F85C31C7F848314FF06E
:104840000003C7F84C310523A7F850310023A7F81F
:10485000523107F5A07307F10C0201210120FFF787
:10486000D8FD07F10C03184601F06EF807F59873B0
:1048700000221A605A609A60DA6003F053FD034622
:10488000C7F83031D7F85831C7F83431D7ED557AF9
:10489000FDEEE77A17EE903A1BB2A7F83C3107F528
:1048A000987307F10C0201210120FFF7D0FC07F1FA
:1048B0000C03184601F048F8D7F86031C7F86431A6
:1048C000142009F0B4FB8CE7200B0020D40A002050
:1048D00080B5CEB004AF0C4B18790B4B59793A1D0B
:1048E0000423039300230293D8230193002300930E
:1048F0000C23FFF79AFE3B1D184601F025F800BF78
:1049000007F59477BD4680BD3008002080B5DAB049
:1049100000AF07F5B473A3F5B273186007F5B4736D
:10492000A3F5AE7306221A7007F10C03013332228D
:10493000002118460DF081FC07F5B473A3F5B2739E
:1049400007F10C02501C312219680DF07EFC07F5AE
:10495000B473A3F5AE73002283F8322007F5B47365
:10496000A3F5AE73002283F83320002283F83420AD
:1049700007F5B473A3F5AE73002283F8352007F171
:104980000C0307F1440201210120FFF72BFE07F180
:104990004403184600F0D8FF00BF07F5B477BD46C2
:1049A00080BD00002DE9F041E2B010AF0023C7F850
:1049B000403107F5A473A3F59E7300221A605A6074
:1049C0009A609A810023C7F8443167E08849D7F894
:1049D00044211346DB009B1A9B000B4408331B68E1
:1049E000002B0DD18249D7F844211346DB009B1AD6
:1049F0009B000B4404331B681B685B6B9BB240E05D
:104A00007B49D7F844211346DB009B1A9B000B44DB
:104A100008331B68042B0DD17549D7F84421134680
:104A2000DB009B1A9B000B4404331B681B689B6BC9
:104A30009BB226E06E49D7F844211346DB009B1A4F
:104A40009B000B4408331B68082B0DD16849D7F82D
:104A500044211346DB009B1A9B000B4404331B6864
:104A60001B68DB6B9BB20CE06149D7F8442113460D
:104A7000DB009B1A9B000B4404331B681B681B6CF8
:104A80009BB207F5A472A2F59E72D7F8441122F8E2
:104A90001130D7F844310133C7F84431D7F84431E5
:104AA000062B93DD534B1B7E1A46D7F84031134338
:104AB000C7F84031504B1B7B5B00D7F840211343B4
:104AC000C7F840314D4B1B7A9B00D7F84021134368
:104AD000C7F840314A4B1B681B685B6B002B01D049
:104AE000082300E000231A46D7F840311343C7F8E3
:104AF00040310421434804F0C1FB03461B011A4620
:104B0000D7F840311343C7F8403104213E4804F040
:104B1000B5FB03465B011A46D7F840311343C7F88B
:104B200040313A4B1B78DBB2032B01D1402300E02C
:104B300000231A46D7F840311343C7F84031344BAD
:104B400093F804C0324B93F805E007F5A473A3F57E
:104B50009E731B887B6007F5A472A2F59E72528833
:104B600007F5A471A1F59E71898807F5A470A0F5D9
:104B70009E70C08807F5A474A4F59E74248907F577
:104B8000A475A5F59E756D8907F5A476A6F59E76A4
:104B9000B68907F11C0800230E9300230D93002310
:104BA0000C930B960A95099408900791069200229F
:104BB000059200220492002203927B680293D7F8A8
:104BC00040310193D7F840310093D7F84031424645
:104BD00071466046FFF796FA07F11C03184600F08D
:104BE000B3FE00BF07F5A477BD46BDE8F08100BF66
:104BF0008C120020F40A0020100B0020200B002053
:104C000038080020000402400008024088120020FA
:104C100030080020B0B5CCB002AF164B1B78DBB229
:104C20001A46154B1B78DBB25B001A43134B1B78FB
:104C3000DBB29B00134307EE903AF8EEE77AC7ED3C
:104C4000497A0F4B1C790E4B5D7903F06BFB0346E1
:104C50003A460C49009197ED490A29462046FFF74C
:104C60003CFC3B46184600F06FFE00BF07F594770A
:104C7000BD46B0BDF00A0020F10A0020F20A002073
:104C800030080020405301082DE9B04F9EB00AAF14
:104C9000F860784B00221A80774B1B68DB6B1B682F
:104CA0005B689BB2C3F50073A7F84E3000F0CEBC32
:104CB000704B1B881A46714B9B5C87F84D3097F8F8
:104CC0004D106F4B6F4A0020FFF7C7F90346002BCA
:104CD00000F0AF846B4B9B68C3F317234C2B16D0AB
:104CE000542B40F0A38407F1140319466548FFF7DD
:104CF000D9FB7B6A644A1360BB6A644A1360FB6A2F
:104D0000634A1360FB6B634A136000F092BC07F1C7
:104D1000140319465B48FFF7AAFB3B8EB3F5C87F27
:104D200023D1D7ED057AB7EE007AF4EE477AF1EEAB
:104D300010FA05D101F0C4FB574B01225A7011E063
:104D4000564B1B78DBB2012B02D1534B03225A7016
:104D5000524B1B78DBB2032B02D14F4B04225A700B
:104D600001F0C2FB4C4B01221A703B8EB52B40F078
:104D7000AE80D7ED057AF5EE407AF1EE10FA14BF69
:104D800001230023DBB21A46434B1B799A421DD004
:104D9000D7ED057AF5EE407AF1EE10FA14BF012353
:104DA0000023DBB21A4604213D4804F07FFAD7ED18
:104DB000057AF5EE407AF1EE10FA14BF01230023D4
:104DC000DAB2354B1A71344B03221A70D7ED067ADA
:104DD000F5EE407AF1EE10FA14BF01230023DBB2A6
:104DE0001A462D4B5B799A421DD0D7ED067AF5EE27
:104DF000407AF1EE10FA14BF01230023DBB21A4609
:104E00000421284804F052FAD7ED067AF5EE407AEC
:104E1000F1EE10FA14BF01230023DAB21E4B5A71CF
:104E20001D4B04221A70D7ED077AF5EE407AF1EEA9
:104E300010FA14BF01230023DBB21A46164BDB78AD
:104E40009A4244D0D7ED077AF5EE407AF1EE10FAA7
:104E50002CD0154B1B680021184606F00BFE0E4B9C
:104E60005A7A114B1B681B685A630B4B0122DA708C
:104E70002AE000BF3C0A0020300800203C08002047
:104E8000CC0C0020A80B0020E00A0020E40A00203F
:104E9000E80A0020EC0A00202408002088120020E4
:104EA000000402400008024038080020AF4B1B6895
:104EB0001B6800225A63AD4B1B680021184606F0A0
:104EC000A1FEAB4B0022DA70A94B02221A703B8E76
:104ED000B72B1BD1D7ED057AFCEEE77A17EE903AA7
:104EE0009BB2DAB2A24B5A72A14BDB78002B0DD0E9
:104EF000D7ED057AFCEEE77A17EE903A9AB29B4B23
:104F00001B681B685A639A4B02221A703B8EB42BA3
:104F100040F08E8397F83430012B40F09181D7ED2B
:104F2000057AF5EE407AF1EE10FA59D1D7ED067A0E
:104F300097ED077AD7ED086A97ED096A8D4BD3EDA7
:104F40000B5A8C4B93ED0A5AD7ED0A4AB0EE643AED
:104F5000F0EE452AB0EE652AF0EE461AB0EE661A7B
:104F6000F0EE470AB0EE670A824802F0C7F98249BC
:104F7000804802F04CFA804B1B681846FBF7E4FAB5
:104F800004460D467C4B5B681846FBF7DDFA80460D
:104F90008946794B9B681846FBF7D6FA82468B46C2
:104FA000754BDB681846FBF7CFFAC7E90001724B77
:104FB0001B691846FBF7C8FA02460B46CDE90823E1
:104FC00097ED007B8DED067BCDE904ABCDE9028941
:104FD000CDE90045694A642169480DF0A7F82BE145
:104FE000D7ED057AB7EE007AF4EE477AF1EE10FAD3
:104FF00059D1D7ED067A97ED077AD7ED086A97ED84
:10500000096A604BD3ED0B5A5E4B93ED0A5AD7ED0C
:105010000A4AB0EE643AF0EE452AB0EE652AF0EEA8
:10502000461AB0EE661AF0EE470AB0EE670A554827
:1050300002F064F95049534802F0E9F94E4B1B68FD
:105040001846FBF781FA04460D464B4B5B68184641
:10505000FBF77AFA80468946474B9B681846FBF770
:1050600073FA82468B46444BDB681846FBF76CFAB2
:10507000C7E90001404B1B691846FBF765FA024679
:105080000B46CDE9082397ED007B8DED067BCDE93E
:1050900004ABCDE90289CDE900453B4A642138489B
:1050A0000DF044F8C8E0D7ED057AB0EE007AF4EEE2
:1050B000477AF1EE10FA6DD1D7ED067A97ED077ABF
:1050C000D7ED086A97ED096A304BD3ED0B5A2F4B99
:1050D00093ED0A5AD7ED0A4AB0EE643AF0EE452A4B
:1050E000B0EE652AF0EE461AB0EE661AF0EE470A08
:1050F000B0EE670A254802F001F91F49234802F083
:1051000086F91D4B1B681846FBF71EFA04460D4630
:10511000194B5B681846FBF717FA80468946164B11
:105120009B681846FBF710FA82468B46124BDB68E9
:105130001846FBF709FAC7E900010F4B1B6918462F
:10514000FBF702FA02460B46CDE9082397ED007BF8
:105150008DED067BCDE904ABCDE90289CDE90045B3
:105160000B4A642106480CF0E1FF65E03808002096
:10517000240800209C010020400A0020445301081C
:10518000540A0020D00100206853010804020020C6
:105190008C530108D7ED057AB0EE087AF4EE477A21
:1051A000F1EE10FA11D1BB69A24A1360A14B1B6842
:1051B0001846FBF7C9F902460B46CDE900239E4A83
:1051C00064219E480CF0B2FF36E0D7ED057AB1EECF
:1051D000007AF4EE477AF1EE10FA12D1984B1B6880
:1051E000984A1360974B1B681846FBF7ADF90246C7
:1051F0000B46CDE90023944A642190480CF096FFB9
:105200001AE0D7ED057AB1EE047AF4EE477AF1EEC2
:1052100010FA11D18A4B5B688C4A13608B4B1B6868
:105220001846FBF791F902460B46CDE90023884A60
:10523000642182480CF07AFF864B05221A70F7E150
:1052400097F83430002B40F03081D7ED057AF5EE39
:10525000407AF1EE10FA38D17F49804802F0D7F851
:105260007D4B1B681846FBF76FF904460D467A4BD9
:105270005B681846FBF768F980468946764B9B6861
:105280001846FBF761F982468B46734BDB6818467C
:10529000FBF75AF9C7E900016F4B1B691846FBF78A
:1052A00053F902460B46CDE9082397ED007B8DEDBF
:1052B000067BCDE904ABCDE90289CDE90045684A1A
:1052C00064215E480CF032FFEBE0D7ED057AB7EED3
:1052D000007AF4EE477AF1EE10FA38D15E4961486F
:1052E00002F095F85C4B1B681846FBF72DF9044655
:1052F0000D46594B5B681846FBF726F980468946F0
:10530000554B9B681846FBF71FF982468B46524B5C
:10531000DB681846FBF718F9C7E900014E4B1B691B
:105320001846FBF711F902460B46CDE9082397ED25
:10533000007B8DED067BCDE904ABCDE90289CDE99B
:105340000045494A64213D480CF0F0FEA9E0D7ED44
:10535000057AB0EE007AF4EE477AF1EE10FA38D121
:105360003D49424802F053F83B4B1B681846FBF797
:10537000EBF804460D46384B5B681846FBF7E4F83B
:1053800080468946344B9B681846FBF7DDF8824619
:105390008B46314BDB681846FBF7D6F8C7E90001AE
:1053A0002D4B1B691846FBF7CFF802460B46CDE99B
:1053B000082397ED007B8DED067BCDE904ABCDE9AD
:1053C0000289CDE900452A4A64211C480CF0AEFE52
:1053D00067E0D7ED057AB0EE087AF4EE477AF1EEA1
:1053E00010FA0ED1134B1B681846FBF7ADF80246B6
:1053F0000B46CDE90023104A642110480CF096FEBC
:105400004FE0D7ED057AB1EE007AF4EE477AF1EE8F
:1054100010FA2FD10B4B1B681846FBF795F8024684
:105420000B46CDE90023084A642104480CF07EFEB7
:1054300037E000BF38020020B0530108540A0020B2
:10544000B80A00205C130020D45301086013002028
:10545000E853010824080020400A00209C01002095
:1054600044530108D00100206853010804020020C1
:105470008C530108D7ED057AB1EE047AF4EE477A41
:10548000F1EE10FA0DD1774B1B681846FBF75CF86C
:1054900002460B46CDE90023734A642173480CF0A1
:1054A00045FE734B05221A70C2E097F83430022B88
:1054B00040F0BE80D7ED057AF5EE407AF1EE10FAB5
:1054C00034D16C4B1B78DBB2002B14BF01230023BB
:1054D000DBB283F00103DBB203F00103DAB2654B08
:1054E0001A70644B1B78DBB283F00103DBB2002B34
:1054F0000FD0614B4FF00002DA605F4B4FF00002BB
:105500009A615D4B4FF00002DA615B4B4FF0000295
:105510001A62584B1B78DBB2002B01D0574B00E0CE
:10552000574B1A46642151480CF000FED7ED057A1E
:10553000B7EE007AF4EE477AF1EE10FA34D1514B1F
:105540001B78DBB2002B14BF01230023DBB283F0F6
:105550000103DBB203F00103DAB24A4B1A70494B84
:105560001B78DBB283F00103DBB2002B0FD0464B7C
:105570004FF00002DA60444B4FF000029A61424B58
:105580004FF00002DA61404B4FF000021A623D4BCF
:105590001B78DBB2002B01D03C4B00E03C4B1A46A1
:1055A000642132480CF0C2FDD7ED057AB0EE007AE6
:1055B000F4EE477AF1EE10FA34D1364B1B78DBB2B9
:1055C000002B14BF01230023DBB283F00103DBB205
:1055D00003F00103DAB22F4B1A702E4B1B78DBB2AB
:1055E00083F00103DBB2002B0FD02B4B4FF00002F6
:1055F000DA60294B4FF000029A61274B4FF000020E
:10560000DA61254B4FF000021A62224B1B78DBB2A5
:10561000002B01D0214B00E0214B1A466421134896
:105620000CF084FD124B06221A7001E000BF00E06E
:1056300000BF1C4B1B8801335A42C3F30803C2F35B
:10564000080258BF53429AB2164B1A80154B1B885A
:10565000B7F84E209A427FF42BAB052008F0E7FC08
:10566000FFF71ABB60130020E8530108540A00201A
:1056700024080020F00A00209C010020FC530108AF
:105680000C540108F10A0020D00100202054010828
:1056900034540108F20A0020040200204854010892
:1056A0005C5401083C0A002080B594B000AF7860DB
:1056B0000023FB640023BB6408F012FC38643A6CDE
:1056C000FB6CD31A632B03D9FFF76CF93B6CFB64BB
:1056D0003A6CBB6CD31AB3F5FA6F03D3FFF7F8F843
:1056E0003B6CBB645B4B1B78002B7DD0594B1B780C
:1056F000013B052B75D801A252F823F0155700087D
:10570000715700089D570008B5570008CD5700088D
:10571000D55700084F4B5B78012B17D14E4B1B78A8
:10572000DBB2032B06D14D48FFF7F0F8494B0022BE
:105730005A7055E0484B1B78DBB2012B50D14848DA
:10574000FFF7E4F8434B02225A7049E0414B5B7883
:10575000032B02D14348FFF7D9F83E4B5B78042B6B
:1057600002D14148FFF7D2F83A4B00225A7037E095
:10577000384BDB78002B0DD0364B5B7A07F10C00F1
:105780003A4A32210CF0D2FC07F10C031846FFF71D
:10579000BDF826E03648FFF7B9F822E02D4B1B791B
:1057A000002B03D03348FFF7B1F81AE03248FFF777
:1057B000ADF816E0274B5B79002B03D02F48FFF79D
:1057C000A5F80EE02E48FFF7A1F80AE02D48FFF7F4
:1057D0009DF806E0FFF71EFA2A48FFF797F800E069
:1057E00000BF1C4B00221A701A4B5B78002B2CD088
:1057F000184B5B78022B28D1174B1B78DBB2022B9E
:1058000023D1002387F847300FE097F847201E493F
:105810001346DB009B1A9B000B44183303221A70BB
:1058200097F84730013387F8473097F84730062B11
:10583000EBD9094B03221A701448FFF767F80748A1
:10584000FFF764F8034B00225A70142008F0EFFBB6
:1058500032E700BF2408002088120020705401089D
:1058600084540108A8540108BC540108D05401080C
:10587000E0540108EC540108FC5401080C550108DF
:1058800018550108540A00208C12002024550108E4
:1058900080B5CCB000AF07F59873A3F59673186088
:1058A0001A4B186807F108014FF0FF33002208F087
:1058B000CDFD0346002BF3D1154B1B686421184620
:1058C00008F05AFC0346002B19D107F108031946CA
:1058D0001048FDF776FF0346A7F82E310E4B1B68E4
:1058E000B7F82E210B49184607F0ECF80346002BB9
:1058F000D6D0074B1B68184608F090FCD0E7044B45
:105900001B68184608F08AFCCAE700BF400B00205D
:10591000440B0020701100203008002080B582B0B8
:1059200000AF7860064B1B687A689A4204D1054B39
:105930001B68184608F072FC00BF0837BD4680BDE2
:1059400030080020440B002080B5CCB000AF07F534
:105950009873A3F59673186007F59873A3F594727E
:1059600007F59873A3F596731B681046194640F225
:1059700023131A460CF049FD074B186807F108017C
:105980000023002208F002FDC7F82C0100BF07F534
:105990009877BD4680BD00BF400B002080B5B0B0F9
:1059A00000AF78600B46FB701346BB70604A7B68A3
:1059B00013605F4AFB7813715D4ABB785371F3EE55
:1059C0000E0ABBEE0E0A5B4801F0E0FCF3EE0E0A95
:1059D000BBEE0E0A584801F0D9FCDFED580A9FEDE6
:1059E000580A584801F0D2FC9FED550A514801F081
:1059F000E1FC9FED530A504801F0DCFC002201213C
:105A0000012008F02FFB03464F4A1360002240F2AA
:105A10002311322008F046FC03464C4A136007F17C
:105A20009C032422002118460CF007FC484BC7F8C1
:105A30009C304FF48063C7F8B0302023C7F8B430EF
:105A400007F178032422002118460CF0F6FB414BA5
:105A5000BB674FF48063C7F88C301823C7F89030C9
:105A600007F154032422002118460CF0E6FB3A4BC0
:105A70007B654FF48063BB661823FB6607F1300338
:105A80002422002118460CF0D8FB344B3B634FF422
:105A900080637B642023BB6407F10C032422002174
:105AA00018460CF0CAFB2E4BFB604FF480633B6240
:105AB00010237B6207F19C031A460021294808F055
:105AC00024FA0346284A136007F178031A46002196
:105AD000264808F01AFA0346254A136007F15403D2
